:020000040800F2
:10000000A80600209D010008FF1E0008DD1D000855
:10001000FD1E0008390300085524000800000000F8
:10002000000000000000000000000000151F000894
:100030003B03000800000000011F0008171F000814
:10004000B7010008B7010008B7010008B7010008B0
:10005000B7010008B7010008B7010008B7010008A0
:10006000B7010008B7010008B7010008B701000890
:10007000B7010008B7010008B7010008B701000880
:10008000B7010008B7010008B7010008B701000870
:10009000B7010008B7010008B7010008B701000860
:1000A000B7010008C51F0008B7010008B701000824
:1000B000B7010008B7010008B7010008B701000840
:1000C000B7010008B7010008B7010008B701000830
:1000D000B7010008B7010008B7010008492400086B
:1000E000B7010008B7010008B7010008B701000810
:1000F000B7010008B7010008B7010008B701000800
:10010000B7010008B7010008B7010008B7010008EF
:10011000B7010008B7010008B7010008B7010008DF
:10012000B7010008B7010008B7010008B7010008CF
:10013000B7010008B7010008B7010008B7010008BF
:10014000B7010008B7010008B7010008B7010008AF
:10015000B7010008B7010008B7010008B70100089F
:10016000B7010008B7010008B7010008B70100088F
:10017000B7010008B7010008B7010008000000003F
:10018000B7010008B7010008DFF80CD000F0C2F892
:100190000048004779270008A80600200648804745
:1001A00006480047FEE7FEE7FEE7FEE7FEE7FEE75C
:1001B000FEE7FEE7FEE7FEE7A91F00088901000849
:1001C0002DE9F05F0546002092469B46884606468C
:1001D000814640241BE0284641464746224600F01F
:1001E00088F853465A46C01A914110D31146184612
:1001F000224600F06FF82D1A67EB01084F462246A1
:100200000120002100F066F817EB00094E41201E86
:10021000A4F10104DFDC484631462A464346BDE8E6
:10022000F09FD2B201E000F8012B491EFBD27047CB
:100230000022F6E710B513460A4604461946FFF7B2
:10024000F0FF204610BD10B5002200E0521C835C78
:100250008C5CA34201D1002BF8D1D8B2E1B2401A94
:1002600010BD000070B50F4D00B92868002412E0E1
:100270000A4602E09E4203D0521C1378002BF9D1AB
:10028000DAB2224305D02BB124B1002100F8011BC2
:1002900004E00446401C0678002EE9D12860204680
:1002A00070BD00001400002030B50B460146002050
:1002B0002022012409E021FA02F59D4205D303FA28
:1002C00002F5491B04FA02F52844151EA2F10102A9
:1002D000F1DC30BD202A04DB203A00FA02F10020D4
:1002E00070479140C2F1200320FA03F31943904074
:1002F0007047202A04DB203A21FA02F000217047DF
:1003000021FA02F3D040C2F120029140084319467D
:1003100070470000064C074D06E0E06840F001031E
:1003200094E8070098471034AC42F6D3FFF730FF4B
:10033000B0280008D0280008FEE77047704700008A
:1003400001480068704700000000002090F8351058
:10035000022903D08021416501207047052180F8E2
:1003600035100068016821F001010160002070472C
:100370002DE9F84F0446A1480D4684421BD0A04801
:10038000844218D09F48844215D09F48844212D09E
:100390009E4884420FD09E4884420CD09D4884429F
:1003A00009D09D48844206D09C48844203D0B321A2
:1003B0009BA002F0A7F928680104090C01D0000CE9
:1003C00003D0B42196A002F09DF96868F8B1012825
:1003D0001DD011281BD0022819D0122817D09F49F0
:1003E000884214D09E49884211D09E4988420ED03E
:1003F0009D4988420BD09D49884208D09C4988423B
:1004000005D0032803D0B52185A002F07BF9A868A8
:1004100038B1012805D0022803D0B62180A002F00F
:1004200071F900264FF0030A4FF00F0B0120B04086
:100430002F688046074047457ED16868012805D06F
:10044000022803D0112801D012281DD1E86848B134
:10045000012807D0022805D0032803D0C82170A0A6
:1004600002F050F9A16870000AFA00F29143EA68BC
:1004700082400A43A2606168287921EA0801C0F33A
:100480000010B04008436060E2687000A9688146CF
:100490000AFA00F822EA080201FA09F11143E160C0
:1004A0006868022801D012282ED12869F8B10928DD
:1004B0001DD001281BD0022819D0032817D00428EA
:1004C00015D0052813D0062811D007280FD00828EA
:1004D0000DD00A280BD00B2809D00C2807D00D28E6
:1004E00005D00F2803D0E0214DA002F00BF9F00851
:1004F00004EB8000026A7107C90E0BFA01F39A43FC
:100500002B698B40134303622068297920EA080095
:1005100001F0030101FA09F1014321606868C0009C
:1005200065D55448016841F480410160006826F0B7
:10053000030100F4804000E059E000904E480A18A2
:10054000D2F80838B007010F0BFA01F083432B48AB
:10055000844201D1002023E02948844201D10120B6
:100560001EE02848844201D1022019E02648844236
:1005700001D1032014E02548844201D104200FE07A
:100580002348844201D105200AE02248844201D157
:10059000062005E02048844201D1072000E0082021
:1005A00088401843C2F80808344908686A68B843A4
:1005B000D20300D5384308603049091D08686A68CD
:1005C000B843920300D5384308602C4908310868C5
:1005D0006A68B843D20200D53843086027490C3115
:1005E00008686A68B843920200D538430860761CF0
:1005F000102EFFF41BAFBDE8F88F00000000024092
:100600000004024000080240000C024000100240BA
:100610000014024000180240001C0240002002406A
:100620002E2E2F447269766572732F53544D3332D8
:10063000463478785F48414C5F4472697665722F22
:100640005372632F73746D3332663478785F6861E8
:100650006C5F6770696F2E6300000000000011106E
:1006600000002110000031100000121000002210C4
:10067000000032104438024000300140003C01408C
:10068000014880687047000004000020024881682B
:100690000278114481607047040000200B4810B5B7
:1006A000016841F400710160016841F480610160FA
:1006B000016841F480710160032000F0C1F800205E
:1006C00000F006F800F024F8002010BD003C0240C5
:1006D00070B50D4D04464FF47A712878B1FBF0F0F7
:1006E0000A490968B1FBF0F000F09DFC48B9102CF4
:1006F00007D200222146501E00F054F800206C6002
:1007000070BD012070BD000004000020100000201A
:100710000A4808B5016841F480410160006800F4AE
:10072000804000900548001F016841F08051016041
:10073000006800F08050009008BD0000443802407E
:1007400010B5040003D5BE2107A001F0DBFF002C8B
:1007500009DB04F01F01012088406109890001F1D3
:10076000E021C1F8000110BD2E2E2F44726976657C
:1007700072732F53544D3332463478785F48414C6E
:100780005F4472697665722F5372632F73746D3391
:1007900032663478785F68616C5F636F7274657815
:1007A0002E63000070B514460D460646102A03D38A
:1007B000AA2113A001F0A6FF102D03D3AB2110A096
:1007C00001F0A0FF1D480068C0F30223C3F1070039
:1007D000042800D90420191D072901D2002300E0B4
:1007E000DB1E012202FA00F1491E294099409A407D
:1007F000521E22403046BDE87040114301F03CBE1D
:100800002E2E2F447269766572732F53544D3332F6
:10081000463478785F48414C5F4472697665722F40
:100820005372632F73746D3332663478785F686106
:100830006C5F636F727465782E6300000CED00E0EE
:1008400010B5044607280BD0062C09D0052C07D07C
:10085000042C05D0032C03D0922108A001F052FFF4
:10086000154A04F0070110684FF6FF03184040EAEC
:10087000012012490843106010BD00002E2E2F44A5
:100880007269766572732F53544D333246347878DB
:100890005F48414C5F4472697665722F5372632FD3
:1008A00073746D3332663478785F68616C5F636F40
:1008B000727465782E6300000CED00E00000FA050C
:1008C0002DE9F0470D4604007ED02068401E0E281A
:1008D00004D940F2512178A001F014FF95B1012D07
:1008E00010D0022D0ED0032D0CD0042D0AD0052DD2
:1008F00008D0062D06D0072D04D040F252216EA05C
:1009000001F000FFDFF8E891D9F8000000F00F01D6
:10091000E8B28046A94208D2014689F80010D9F809
:10092000000000F00F00A8427BD12068714E8107C3
:1009300029D5400703D5306840F4E0503060207876
:10094000000703D5306840F460403060A068A0B173
:10095000802812D0902810D0A0280ED0B0280CD01B
:10096000C0280AD0D02808D0E02806D0F02804D02B
:1009700040F2752150A001F0C5FE3068A16820F05A
:10098000F000084330602078C0073CD0594F6068C1
:10099000083F88B1012821D0022822D0032820D086
:1009A0004FF41F7144A001F0ADFE6068012815D01E
:1009B000022816D0032814D038688007002830DABF
:1009C000306820F0030000E02BE0616808433060ED
:1009D000FFF756FE074641F2883A0DE0386880037B
:1009E000ECE738688001E9E7FFF74AFEC11B514593
:1009F00002D90320BDE8F0873068616800F00C0080
:100A0000B0EB810FF0D1D9F80010484601F00F018A
:100A1000A94208D980F80080006800F00F00A842C1
:100A200001D00120E6E720784FF4805540074FF4CD
:100A3000A0574FF4C0584FF4E05914D5E06860B1A6
:100A4000A8420AD0B84208D0404506D0484504D054
:100A500040F2BA2118A001F055FE3068E16820F498
:100A6000E050084330602078000715D5206960B158
:100A7000A8420AD0B84208D0404506D0484504D024
:100A800040F2C1210CA001F03DFE3068216920F444
:100A9000604040EAC100306000F054F83168164A06
:100AA000C1F30311515CC840144908601448006840
:100AB000FFF70EFE00209DE72E2E2F44726976650B
:100AC00072732F53544D3332463478785F48414C1B
:100AD0005F4472697665722F5372632F73746D333E
:100AE00032663478785F68616C5F7263632E63008E
:100AF000003C024008380240902800081000002006
:100B0000080000200448054900680968044AC1F348
:100B10008221515CC8407047100000200838024014
:100B2000A02800080448054900680968044AC1F380
:100B30004231515CC8407047100000200838024024
:100B4000A0280008154810B5006810F00C011448E2
:100B500013D0144B04290FD008290ED10F4C241F99
:100B6000216801F03F022168490207D52068C0F3DF
:100B70008810A0FB030106E0184610BD2168C1F3F0
:100B80008811A1FB00010023FFF71AFB2168C1F3C4
:100B90000141491C4900B0FBF1F010BD083802408A
:100BA0000024F40040787D012DE9F84F04007CD04A
:100BB00020680F2803D9E821EBA001F0A3FD2078DD
:100BC000DFF8DCB3F74DC00755D060684FF48036CE
:100BD0004FF4A02738B1B04205D0B84203D0ED2180
:100BE000E1A001F08FFDDBF800105846C1F3810150
:100BF000012909D00068C0F3810002280BD1E84820
:100C0000001F0068400206D52868800333D560685D
:100C10000028CCD02FE06068B04203D1286840F4AF
:100C200080300CE0B842286803D140F4802028606E
:100C3000F4E720F480302860286820F480202860C1
:100C4000606860B1FFF71CFD064604E0FFF718FD81
:100C5000801B64287ED828688003F7D50BE0FFF757
:100C60000FFD064604E0FFF70BFD801B6428F1D85A
:100C700028688003F7D42078DFF82C9380074FF0A2
:100C8000000A50D5E06830B1012804D040F21F11AD
:100C9000B5A001F037FD20691F2804D94FF49071E9
:100CA000B1A001F02FFD584600E092E0DBF8001003
:100CB00011F00C0F09D00068C0F3810002280BD19D
:100CC000B748001F0068400206D42868800714D582
:100CD000E06801287DD110E0E068B0B10120C9F8DA
:100CE0000000FFF7CDFC064604E0FFF7C9FC801BBF
:100CF0000228AFD828688007F7D52868216920F036
:100D0000F80040EAC10028600DE0C9F800A0FFF734
:100D1000B7FC064604E0FFF7B3FC801B022899D815
:100D200028688007F7D4207800072BD59C4F9F4E6A
:100D300060696C37C0B1012806D04FF4B0718AA049
:100D400001F0E0FC606978B101203060FFF798FCA9
:100D5000064605E03EE1FFF793FC801B022886D89B
:100D600038688007F7D50DE0C6F800A0FFF788FCCB
:100D7000064604E0FFF784FC801B0228B9D83868D7
:100D80008007F7D42078400772D5A0684FF000089C
:100D900040B1012806D0052804D04FF4C67172A0D6
:100DA00001F0B0FC7E4838300068C0000BD47C48AD
:100DB0003830016841F08051016000684FF001084F
:100DC00000F0805000907A4F3868C00511D4386820
:100DD00000E024E140F480703860FFF751FC0646E3
:100DE00004E0FFF74DFC801B022898D83868C00546
:100DF000F7D56B4FA068683701280FD005283868F1
:100E000010D020F001003860386820F0040038600D
:100E1000A068B0B1FFF734FC06460EE0386840F039
:100E20000100F4E740F004003860F7E7FFF728FC22
:100E3000811B41F28830814291D838688007F5D50E
:100E40000DE0FFF71DFC064606E0FFF719FC811BCD
:100E500041F28830814291D838688007F5D4B8F1E2
:100E6000000F05D04E483830016821F080510160F4
:100E7000A069002876D0012809D0022807D040F2C6
:100E8000CF1139A001F03EFCA0690028F2D0DBF8B8
:100E900000105846C1F38101022964D0A0690228DC
:100EA00005D0C9F860A0FFF7EBFB044695E0E069C8
:100EB00038B1B0F5800F04D04FF4EC712AA001F0E6
:100EC00021FC206A3F2804D940F2D91126A001F064
:100ED00019FC606A3238B0F5BF7F04D94FF4ED7168
:100EE00021A001F00FFCA06A02280AD0042808D033
:100EF000062806D0082804D040F2DB111AA001F021
:100F000001FCE06A801E0D2804D94FF4EE7116A092
:100F100001F0F8FB4F46C9F860A0FFF7B1FB0646A9
:100F200004E0FFF7ADFB801B022853D8286880013E
:100F3000F7D4D4E907010843A16A1E4A490802EB25
:100F40000141626A41EA8211084394F82C1040EA98
:100F500001611348001F016001203866FFF790FB14
:100F600004462EE05DE03CE02E2E2F44726976654B
:100F700072732F53544D3332463478785F48414C66
:100F80005F4472697665722F5372632F73746D3389
:100F900032663478785F68616C5F7263632E6300D9
:100FA000083802400038024000004742800E4742A5
:100FB000007000400000FFFFFFF762FB001B0228EB
:100FC00008D828688001F7D52BE0FFF759FB001BF4
:100FD000022802D90320BDE8F88F28688001F4D4E4
:100FE0001FE0A16901291AD00068E26900F48001BC
:100FF000914214D1226A00F03F0191420FD147F68D
:10100000C071626A0140914209D1A26A00F4403184
:10101000914204D1E16A00F07060884201D0012061
:10102000D9E70020D7E710B5401EB0F1807F01D38B
:10103000012010BD4FF0E02460610F21601701F026
:101040001BFA0020A06107202061002010BD70471E
:10105000704700002DE9F05F044600683B4E3C4FAE
:10106000DFF8F080DFF8F090DFF8F0A00D464FF0E9
:10107000804BB04215D0584513D0B84211D04045EE
:101080000FD048450DD04FEAB641884209D03449C7
:10109000884206D0504504D040F2646131A001F08E
:1010A00031FB286890B1102810D020280ED03028AD
:1010B0000CD040280AD0502808D0602806D07028CC
:1010C00004D040F2656127A001F01CFB686880280D
:1010D00005D020B140F2666122A001F013FB94F824
:1010E0003C0001282FD0012284F83C20022084F803
:1010F0003D00206843688168D5F800C023F0700384
:101100004CEA030CC0F804C02068B0420FD0584528
:101110000DD0B8420BD0404509D0484507D05045C6
:1011200005D01F4B984202D01E4B984204D121F0AB
:10113000800369681943816084F83D20002084F8A9
:101140003C00BDE8F09F0220FBE7000000000140EA
:101150000004004000080040000C00400004014072
:10116000001400402E2E2F447269766572732F533F
:10117000544D3332463478785F48414C5F4472694D
:101180007665722F5372632F73746D3332663478C1
:10119000785F68616C5F74696D5F65782E630000CD
:1011A000004001400018004010B5040058D03648F7
:1011B000226882422BD0B2F1804F28D0334882423D
:1011C00025D03348824222D0324882421FD0324852
:1011D00082421CD03148824219D03148824216D016
:1011E0003048824213D03048824210D02F48824289
:1011F0000DD02F4882420AD02E48824207D02E4876
:10120000824204D04FF489712CA001F07BFAA068CF
:1012100060B110280AD0202808D0402806D06028C5
:1012200004D040F2131125A001F06CFA206950B1EE
:10123000B0F5807F07D0B0F5007F04D04FF48A71FD
:101240001EA001F05FFAA06930B1802804D040F2FE
:1012500015111AA001F056FA94F83D0010B107E0FC
:10126000012010BD002084F83C00204600F042F828
:10127000022084F83D00211D206800F0A9FE012015
:1012800084F83D00002010BD000001400004004033
:1012900000080040000C0040001000400014004016
:1012A000000401400040014000440140004801406A
:1012B00000180040001C0040002000402E2E2F444B
:1012C0007269766572732F53544D33324634787891
:1012D0005F48414C5F4472697665722F5372632F89
:1012E00073746D3332663478785F68616C5F7469EB
:1012F0006D2E630008B500680649884208D106488B
:10130000016841F001010160006800F001000090F7
:1013100008BD0000000001404438024010B50446FA
:101320000168204881422BD0B1F1804F28D01E485F
:10133000814225D01D48814222D01D4881421FD0C4
:101340001C4881421CD01C48814219D01B48814254
:1013500016D01B48814213D01A48814210D01A4837
:1013600081420DD0194881420AD01948814207D0E4
:101370001848814204D040F2851117A001F0C2F94B
:10138000022084F83D002068816801F007010629E9
:1013900003D0016841F001010160012084F83D00A3
:1013A000002010BD00000140000400400008004083
:1013B000000C0040001000400014004000040140F8
:1013C0000040014000440140004801400018004036
:1013D000001C0040002000402E2E2F4472697665CC
:1013E00072732F53544D3332463478785F48414CF2
:1013F0005F4472697665722F5372632F73746D3315
:1014000032663478785F68616C5F74696D2E630052
:101410002DE9F05F054690F83C000C46012841D0CC
:10142000012085F83C00022085F83D0020684FF43B
:10143000805B584516D0B0F5005F13D090B11028EE
:1014400010D020280ED030280CD040280AD05028A8
:1014500008D0602806D0702804D041F28B11D1A0AA
:1014600001F050F92868816821F0770121F47F416B
:1014700081602068D949DA4ADA4BDB4EDB4FDFF86E
:1014800070C3DFF870834FF080494FF4004A502852
:101490007ED00FDC202804D007DC0028FBD01028E9
:1014A00052D165E10220BDE8F09F3028F9D04028F4
:1014B000F6D12AE160286CD0702873D0584544D00A
:1014C0004FF400584045EBD1286888420ED048457B
:1014D0000CD090420AD0984208D0B04206D0B84210
:1014E00004D041F2B611AFA001F00CF9A06858B1D8
:1014F000584509D0404507D0B0F5405F04D041F2CF
:10150000B911A8A001F0FEF86068504509D040B1BB
:10151000022806D00A2804D041F2BA11A1A001F095
:10152000F1F8E0680F2804D941F2BB119DA001F049
:10153000E9F8D4E90121E368286800F0ADFD2868E6
:10154000816841F480418160D8E028688842FBD0FE
:101550004845F9D09042F7D09842F5D0B042F3D048
:10156000A5498842F0D0A5498842EDD0B842EBD0D9
:101570006045E9D0A2498842E6D0A2498842E3D03A
:101580004045E1D0A0498842DED0A049884202E02F
:101590004DE07FE006E0D7D041F2971181A001F045
:1015A000B1F8ABE02868884212D0484510D090428C
:1015B0000ED098420CD0B0420AD0B84208D0604554
:1015C00006D0404504D041F29E1176A001F09AF871
:1015D000A06860B158450AD0B0F5005F07D0B0F5FB
:1015E000405F04D041F2A1116EA001F08BF8606859
:1015F000504509D040B1022806D00A2804D041F253
:10160000A21168A001F07EF8E0680F2804D941F229
:10161000A31164A001F076F8D4E90121E3682868F9
:1016200000F03AFD2868816841F077018BE728686F
:10163000884212D0484510D090420ED098420CD02B
:10164000B0420AD0B84208D0604506D0404504D028
:1016500041F2CA1153A001F055F86068504509D015
:1016600040B1022806D00A2804D041F2CD114DA085
:1016700001F048F8E0680F2804D941F2CE1149A0E2
:1016800001F040F8E2686168286800F017FD502119
:10169000286831E02868884212D0484510D090422E
:1016A0000ED098420CD0B0420AD0B84208D0604563
:1016B00006D0404504D041F2DA113AA001F022F8F8
:1016C0006068504509D040B1022806D00A2804D0ED
:1016D00041F2DD1133A001F015F8E0680F2804D9BC
:1016E00041F2DE112FA001F00DF8E2686168286870
:1016F00000F0F5FC6021286800F0D8FC012085F896
:101700003D00002085F83C00CDE62868884212D0D4
:10171000484510D090420ED098420CD0B0420AD02A
:10172000B84208D0604506D0404504D041F2EA11E5
:101730001CA000F0E7FF6068504509D040B10228C6
:1017400006D00A2804D041F2ED1116A000F0DAFF0D
:10175000E0680F2804D941F2EE1112A000F0D2FF88
:10176000E2686168286800F0A9FC40212868C3E7A6
:101770002868884212D0484510D090420ED0984236
:101780000CD0B0420AD0B84208D0604506D04045DF
:1017900004D041F2FD1103A000F0B4FF21682868D5
:1017A000AAE700002E2E2F447269766572732F53BC
:1017B000544D3332463478785F48414C5F44726907
:1017C0007665722F5372632F73746D33326634787B
:1017D000785F68616C5F74696D2E63000000014082
:1017E0000004004000080040000C004000040140DC
:1017F000004001400018004000100040001400406C
:101800000044014000480140001C0040002000400E
:10181000704770B50446006801694FF00005C94380
:10182000890715D4C168C943890711D4E91E01612C
:1018300001202077206880698007204602D0FFF7CA
:10184000E7FF04E000F098F8204600F096F82577CE
:1018500020680169C943490717D4C168C9434907CA
:1018600013D46FF0040101610220207720688069A1
:1018700010F4407F204602D0FFF7CAFF04E000F0DA
:101880007BF8204600F079F8257720680169C94384
:10189000090716D4C168C943090712D46FF00801BB
:1018A0000161042020772068C0698007204602D0AB
:1018B000FFF7AEFF04E000F05FF8204600F05DF8AF
:1018C000257720680169C943C90617D4C168C9438F
:1018D000C90613D46FF01001016108202077206839
:1018E000C06910F4407F204602D0FFF791FF04E06A
:1018F00000F042F8204600F040F8257720680169A2
:10190000C943C90708D1C168C943C90704D1891EA1
:101910000161204600F032F820680169C9430906D8
:1019200009D4C168C943090605D46FF0800101617B
:101930002046FFF78CFB20680169C943490609D49A
:10194000C168C943490605D46FF0400101612046D2
:1019500000F015F820680169C94389060BD4C168F5
:10196000C943890607D46FF0200101612046BDE814
:101970007040FFF76DBB70BD704770477047704790
:101980007047000070B5026804461068D16853695A
:1019900010F00F0F53D003F0010501F490762E43A1
:1019A0005FD0C20705D0CA0503D5E26B42F0010241
:1019B000E263420705D5DA0703D0E26B42F0020288
:1019C000E263820705D5DA0703D0E26B42F0040236
:1019D000E263020707D501F020022A4303D0E26B3D
:1019E00042F00802E263E26B002A34D0800604D59C
:1019F000880602D5204600F09AFB20684069E16B1A
:101A0000C0F3801001F008010143204624D000F00B
:101A100080FB2068416949061AD5416921F04001DF
:101A20004161606BA0B11B490165606BFEF78EFCE4
:101A3000002810D0606B016DBDE870400847830638
:101A40000FD58B060DD52046BDE8704000F06FBB6A
:101A50002046FFF795FF70BDFFF792FF0020E0637F
:101A600070BD030606D50B0604D52046BDE87040C0
:101A700000F088BC4006F3D54806F1D5D168204671
:101A800021F04001D160202184F8391000F0A5F93F
:101A900070BD00000321000870B5040023D0A069C8
:101AA0003B4900283B4A3C4B3C4D20681DD08842B6
:101AB0000CD090420AD0984208D0A84206D040F2FA
:101AC0004B1137A000F01EFEA06908B3A069B0F565
:101AD000807F1DD0B0F5007F1AD0B0F5407F17D0C1
:101AE0004FF4A67111E0012070BD884210D09042E1
:101AF0000ED098420CD03949884209D038498842E2
:101B000006D0A84204D04FF4A87125A000F0FAFD39
:101B1000A06838B1B0F5805F04D04FF4A97120A05F
:101B200000F0F0FDE06938B1B0F5004F04D040F2AC
:101B300053111BA000F0E6FD94F83900002520B9F0
:101B400084F83850204600F04DF8242084F83900FD
:101B50002068C16821F40051C160204600F032FBCA
:101B60002068016921F4904101612068416921F0F8
:101B70002A0141612068C16841F40051C160E563F8
:101B8000202084F8390084F83A00002070BD00005D
:101B90000010014000440040004800400014014093
:101BA0002E2E2F447269766572732F53544D333243
:101BB000463478785F48414C5F4472697665722F8D
:101BC0005372632F73746D3332663478785F686153
:101BD0006C5F756172742E6300000000004C004061
:101BE0000050004010B586B0044614216846FEF748
:101BF0001FFB18492068884229D11748016841F421
:101C000080210160006800F480200590124810389F
:101C1000016841F0040101600068694600F00400B9
:101C200005904FF440600090022001900120029046
:101C300003200390072004900848FEF799FB002238
:101C400011462720FEF7AEFD2720FEF779FD06B0EE
:101C500010BD00000048004040380240000802402B
:101C600090F83A30202B22D1F9B1F2B190F8383007
:101C7000012B1CD081628285C2850021C163222292
:101C800080F83A2080F838100168CA6842F48072FF
:101C9000CA6001684A6942F001024A610068C1688D
:101CA00041F02001C16000207047012070470220F0
:101CB0007047000018490068096888422BD117480E
:101CC000016891F8202000200A2A03D091F82020F2
:101CD0000D2A02D191F822206AB191F82120202A00
:101CE0000FD291F8202091F821000B18401C81F8A8
:101CF00021001A700AE081F82100012081F82200F9
:101D000004E091F82120885481F821000122024842
:101D10002031FFF7A5BF70476400002000000020BD
:101D20002DE9F843044690F839001E4617460D4643
:101D3000202850D1B5B1AFB194F8380001284AD06D
:101D4000012084F838004FF00008C4F83C802120BE
:101D500084F83900FEF794FCA7848146E78484F870
:101D6000388026E00120BDE8F883E08C401EE08446
:101D7000A0684B46B0F5805F4FF000024FF0800145
:101D80002046009603D000F02EFBE8B90DE000F0ED
:101D90002AFBC8B928882168C0F308004860206978
:101DA00008B16D1C05E0AD1C03E0216815F8010BBE
:101DB0004860E08C0028D8D14B46002240212046C4
:101DC000009600F010FB08B10320CCE7202084F837
:101DD00039000020C7E70220C5E77047FEE7000092
:101DE0000248006890F822007047000000000020C0
:101DF0000D4808B5016841F002010160016801F079
:101E000002010091016841F001010160016801F0E7
:101E100001010091016841F004010160006800F0D7
:101E20000400009008BD00003038024010B586B0B4
:101E300000241848009401940294039404941449D3
:101E40000594C0E900144FF6FE71C0E90241046137
:101E500044618461FFF7A8F908B1FEF76FFA4FF407
:101E60008050009069460B48FFF7D2FA08B1FEF7A0
:101E700065FA049404A907480594FFF7EBF808B144
:101E8000FEF75CFA0348FFF749FA06B010BD000000
:101E90000000014024000020114810B50F490160E6
:101EA0004FF4E1314160002181600C22C160C0E942
:101EB00004128161C161FFF7EFFD08B1FEF73EFA40
:101EC000232000F067FC07490028086004D1BDE822
:101ED000104005A000F0C0BA10BD0000004800404E
:101EE00064000020000000205541525420496E69D2
:101EF00074204661696C6564200A0000FEE7704743
:101F00007047000002490020096881F822007047EC
:101F1000000000207047FEF7B9BB000030B593B059
:101F200030216846FEF784F914210CA8FEF780F9E9
:101F30001B480025016841F080510160006800F0F5
:101F4000805011901748016841F480410160006899
:101F5000022400F4804011900120009000040190C0
:101F60008001CDE90640192008904FF4A870CDE912
:101F7000090404200B906846FEF716FE6846FEF73B
:101F800013FE0CA90F2081E831004FF4A0500F90F0
:101F9000109005210CA8FEF793FC13B030BD000093
:101FA00040380240007000400548016841F470016B
:101FB000016003494FF000608039086070470000FD
:101FC00088ED00E00148FFF724BC00002400002059
:101FD000F0B50268254D264E264FDFF89CC0274BF2
:101FE0004FF0804EA84209D0704507D0B04205D0CE
:101FF000B84203D0604501D0984203D122F070046A
:102000004A682243A8421BD0704519D0B04217D06D
:10201000B84215D0604513D0984211D0184CA04258
:102020000ED0184CA0420BD0174CA04208D0174C31
:10203000A04205D0164CA04202D0164CA04203D1BB
:1020400022F44074CA6822434C6922F08002224381
:1020500002608A68C2620A688262A84201D098421D
:1020600001D10969016301214161F0BD0000014016
:102070000004004000080040000C00400004014043
:102080000040014000440140004801400018004069
:10209000001C00400020004010B5846842EA032282
:1020A00024F47F440A432243826010BD826822F0F8
:1020B00070020A4342F007018160704710B5046A5C
:1020C000036A23F001030362836923F0F00343EA08
:1020D000021324F00A020A438361026210BD10B5A4
:1020E000036A23F0100303628469036A24F47044D2
:1020F00044EA023223F0A00343EA01118261016243
:1021000010BD10B5806B0021C185C184FFF738FC7C
:1021100010BD0168CA6822F49072CA6001684A69F9
:1021200022F001024A61202180F83A10704710B570
:1021300090F83A10222901D0022010BD8168B1F533
:10214000805F11D00169002901681FD0496801F042
:102150007F03816A4A1C82620B70C18D491E09048B
:10216000090CC18518D02BE00269816A002A026837
:10217000526805D0D2B20A80816A491C8162ECE7BC
:10218000C2F308020A80816A891CF7E74A68816AFB
:102190004B1C83620A70E0E70168CA6822F02002E3
:1021A000CA600168CA6822F48072CA6001684A691C
:1021B00022F001024A61202180F83A10FFF77AFDEF
:1021C000002010BD2DE9F041044640685B4988427B
:1021D00004D940F6FB315AA000F094FAE06838B117
:1021E000B0F5005F04D040F6FC3155A000F08AFA4B
:1021F000206950B1B0F5806F07D0B0F5C06F04D042
:1022000040F6FD314EA000F07DFA60694FF6F371A3
:10221000084200D120B940F6FE3149A000F072FA20
:1022200020680169E26821F4405111430161A1680D
:102230002069E26901436069104301432068C26874
:1022400049F20C639A430A43C26020684169A2695B
:1022500021F4407111434161E06919276425322658
:10226000B0F5004F454A464920684FF0000806D0B7
:10227000884201D0904236D1FEF754FC35E08842C6
:1022800001D0904202D1FEF74DFC01E0FEF73AFC8E
:1022900061684A18A0FB070148EB0803FDF790FFAF
:1022A0000146B0FBF5F00201B1FBF5F06FF0180349
:1022B000584301EB800006EBC000B0FBF5F000F0E6
:1022C000F80002EB4002B1FBF5F0584301EB80004F
:1022D00006EBC000B0FBF5F000F0070021681044E9
:1022E0008860BDE8F081FEF70DFC01466068830F51
:1022F0008200A1FB0701FDF763FF0146B0FBF5F08B
:102300006FF01802504301EB800006EB0010B0FBA9
:10231000F5F000F0F002B1FBF5F002EB0012B1FBBA
:10232000F5F06FF01803584301EB800006EB001046
:10233000B0FBF5F000F00F00D0E70000A037A000E0
:102340002E2E2F447269766572732F53544D33329B
:10235000463478785F48414C5F4472697665722FE5
:102360005372632F73746D3332663478785F6861AB
:102370006C5F756172742E630000000000140140F0
:102380000010014090F83910212901D00220704737
:102390008168B1F5805F016A0BD04A1C0262026855
:1023A00009785160C18C491E0904090CC1840ED002
:1023B00017E009880268C1F308015160016900292A
:1023C000016A02D0491C0162ECE7891CFBE7016845
:1023D000CA6822F08002CA600068C16841F040010A
:1023E000C160002070472DE9F0411E46174688461F
:1023F0000446069D1CE0681C1AD025B1FEF740F982
:10240000801BA84214D92068C16821F4D071C16032
:102410002068416921F001014161202084F83900E0
:1024200084F83A00002084F838000320BDE8F081E9
:102430002068016838EA010004D00020B842DAD0F0
:102440000020F3E70120F9E70148FFF79BBA0000FD
:1024500064000020FEE700000FB4054B10B503A98F
:10246000044A029800F028F810BC5DF814FB000044
:1024700061270008180000200907090E002804DB66
:1024800000F1E02080F80014704700F00F0000F128
:10249000E02080F8141D704702E008C8121F08C130
:1024A000002AFAD170477047002001E001C1121FD5
:1024B000002AFBD1704700002DE9FF4F8BB09A46F0
:1024C0000F460546002606E025280BD052460D99FA
:1024D00090476D1C761C28780028F5D10FB0304647
:1024E000BDE8F08F0024A0460122604900E00443CB
:1024F00015F8013F203B02FA03F00842F7D1287893
:102500002E2817D115F8010F44F004042A280ED004
:102510006FF02F022878A0F1300109290AD808EBC2
:10252000880102EB410100EB01086D1CF2E757F84E
:10253000048B6D1C287869283ED006DC0028CDD09D
:1025400063280BD0642804D136E0732810D0752896
:102550004BD052460D999047761C85E017F8040B36
:102560008DF8000000208DF80100E946012003E00D
:1025700057F8049B4FF0FF3061074FF0000401D47F
:102580000AE0641C44450DDA8442FADB19F80410B1
:102590000029F6D106E0641C8442FCDB19F8041023
:1025A0000029F8D1264404E019F8010B52460D9990
:1025B0009047641EF8D257E001CF4FF00A0B002875
:1025C00002DA40422D2102E0210504D52B218DF8AD
:1025D0002410012103E0E10705D02021F7E70DF1E8
:1025E000200908910CE00021F9E701CF4FF00A0B18
:1025F000F9E75946FDF758FE01F1300209F8012DBF
:102600000028F6D1ADEB090000F1200B600701D4E2
:102610004FF00108D84502DDA8EB0B0000E00020D8
:102620008046002406E009A85246005D0D999047B7
:10263000641C761C08988442F5DB04E03020524686
:102640000D999047761CB8F10001A8F10108F5DC5E
:1026500005E019F8010B52460D999047761CBBF125
:102660000001ABF1010BF4DC6D1C34E7092801001B
:10267000FDF766FE040002D110A0FFF7EDFE012277
:1026800004F120011448FFF7EBFA0020206013A0AA
:10269000FFF7E2FEFFF7A4FB0128FBD1FFF732FCB6
:1026A000204600F0ADF8012802D111A0FFF7D4FEBA
:1026B00023212046FDF7BCFDECE700004661696C74
:1026C000656420746F2053657474696E672055418A
:1026D0005254200A000000006400002053797374F3
:1026E000656D2053746172742E2E2E200D0A000029
:1026F0004C697374204E6F7420466F756E64200DA4
:102700000A0000007047000070B50C4605460968D5
:1027100006A0FFF7A1FE294608A06268FFF79CFE0D
:102720000DA0FFF799FE002070BD00006172677672
:10273000203A202573200D0A0000000061726763B3
:10274000203A202564202C2061726776203A2025CB
:1027500073200D0A0000000054455354200D0A0058
:1027600013B541F28833012269460248FFF7D8FACF
:1027700000981CBD64000020FDF790FFFFF7CEFB22
:10278000FFF736FBFFF752FBFFF786FBFFF770FF03
:10279000FEE70000F0B50B30154D20F007010024D6
:1027A000144A0FE003688B420BD38B4205D95E1AA3
:1027B00043184768C3E9006700E04368136002C03C
:1027C00004E0021D10680028ECD12046002802D148
:1027D000286808B10020F0BD064A07481060074A83
:1027E000121A22F00702C0E9002401202860D7E76E
:1027F000200000201C000020AC000020A8020020C7
:1028000070B594B00446FDF79BFD78B115A1204644
:10281000FDF728FD6C460125009012A10020FDF770
:1028200021FD44F8250038B16D1CF6E70EA0FFF736
:1028300013FE022014B070BD0024104E04E0009975
:10284000FDF701FD30B1641C56F834000028F6D1C4
:102850000120EFE706EBC40069464268284690472E
:10286000E8E70000200000005561727420427566A0
:10287000666572204572726F72200A008028000817
:10288000A828000809270008000000000000000038
:102890000000000000000000010203040607080910
:1028A000000000000102030474657374000000005E
:1028B000D028000800000020240000009824000810
:1028C000F42800082400002084060000A824000842
:1028D00000000000010000001000000000000000E7
:1028E0000024F400000000000000000000000000D0
:0428F00000000000E4
:040000050800018965
:00000001FF
